{
  "contractName": "landRegistration",
  "abi": [
    {
      "inputs": [],
      "payable": false,
      "stateMutability": "nonpayable",
      "type": "constructor",
      "signature": "constructor"
    },
    {
      "constant": false,
      "inputs": [
        {
          "name": "_superAdmin",
          "type": "address"
        },
        {
          "name": "_village",
          "type": "string"
        }
      ],
      "name": "addSuperAdmin",
      "outputs": [],
      "payable": false,
      "stateMutability": "nonpayable",
      "type": "function",
      "signature": "0xab05bae6"
    },
    {
      "constant": false,
      "inputs": [
        {
          "name": "_state",
          "type": "string"
        },
        {
          "name": "_district",
          "type": "string"
        },
        {
          "name": "_village",
          "type": "string"
        },
        {
          "name": "_surveyNumber",
          "type": "uint256"
        },
        {
          "name": "_OwnerAddress",
          "type": "address"
        },
        {
          "name": "_marketValue",
          "type": "uint256"
        },
        {
          "name": "id",
          "type": "uint256"
        }
      ],
      "name": "Registration",
      "outputs": [
        {
          "name": "",
          "type": "bool"
        }
      ],
      "payable": true,
      "stateMutability": "payable",
      "type": "function",
      "signature": "0x2b3009d3"
    },
    {
      "constant": true,
      "inputs": [
        {
          "name": "id",
          "type": "uint256"
        }
      ],
      "name": "landInfoOwner",
      "outputs": [
        {
          "name": "",
          "type": "string"
        },
        {
          "name": "",
          "type": "string"
        },
        {
          "name": "",
          "type": "string"
        },
        {
          "name": "",
          "type": "uint256"
        },
        {
          "name": "",
          "type": "bool"
        },
        {
          "name": "",
          "type": "address"
        },
        {
          "name": "",
          "type": "uint8"
        }
      ],
      "payable": false,
      "stateMutability": "view",
      "type": "function",
      "signature": "0x55d61952"
    },
    {
      "constant": true,
      "inputs": [
        {
          "name": "id",
          "type": "uint256"
        }
      ],
      "name": "landInfoUser",
      "outputs": [
        {
          "name": "",
          "type": "address"
        },
        {
          "name": "",
          "type": "uint256"
        },
        {
          "name": "",
          "type": "bool"
        },
        {
          "name": "",
          "type": "address"
        },
        {
          "name": "",
          "type": "uint8"
        }
      ],
      "payable": false,
      "stateMutability": "view",
      "type": "function",
      "signature": "0x9d01485f"
    },
    {
      "constant": true,
      "inputs": [
        {
          "name": "_state",
          "type": "string"
        },
        {
          "name": "_district",
          "type": "string"
        },
        {
          "name": "_village",
          "type": "string"
        },
        {
          "name": "_surveyNumber",
          "type": "uint256"
        }
      ],
      "name": "computeId",
      "outputs": [
        {
          "name": "",
          "type": "uint256"
        }
      ],
      "payable": false,
      "stateMutability": "view",
      "type": "function",
      "signature": "0x1d50a6c4"
    },
    {
      "constant": false,
      "inputs": [
        {
          "name": "id",
          "type": "uint256"
        }
      ],
      "name": "requstToLandOwner",
      "outputs": [],
      "payable": false,
      "stateMutability": "nonpayable",
      "type": "function",
      "signature": "0x6c5ed939"
    },
    {
      "constant": true,
      "inputs": [],
      "name": "viewAssets",
      "outputs": [
        {
          "name": "",
          "type": "uint256[]"
        }
      ],
      "payable": false,
      "stateMutability": "view",
      "type": "function",
      "signature": "0x0d2d5dca"
    },
    {
      "constant": true,
      "inputs": [
        {
          "name": "property",
          "type": "uint256"
        }
      ],
      "name": "viewRequest",
      "outputs": [
        {
          "name": "",
          "type": "address"
        }
      ],
      "payable": false,
      "stateMutability": "view",
      "type": "function",
      "signature": "0x26e85250"
    },
    {
      "constant": false,
      "inputs": [
        {
          "name": "property",
          "type": "uint256"
        },
        {
          "name": "status",
          "type": "uint8"
        }
      ],
      "name": "processRequest",
      "outputs": [],
      "payable": false,
      "stateMutability": "nonpayable",
      "type": "function",
      "signature": "0xfdb10f50"
    },
    {
      "constant": false,
      "inputs": [
        {
          "name": "property",
          "type": "uint256"
        }
      ],
      "name": "makeAvailable",
      "outputs": [],
      "payable": false,
      "stateMutability": "nonpayable",
      "type": "function",
      "signature": "0xbaa39e05"
    },
    {
      "constant": false,
      "inputs": [
        {
          "name": "property",
          "type": "uint256"
        }
      ],
      "name": "buyProperty",
      "outputs": [],
      "payable": true,
      "stateMutability": "payable",
      "type": "function",
      "signature": "0x6fa830a6"
    },
    {
      "constant": true,
      "inputs": [
        {
          "name": "id",
          "type": "uint256"
        },
        {
          "name": "user",
          "type": "address"
        }
      ],
      "name": "findId",
      "outputs": [
        {
          "name": "",
          "type": "uint256"
        }
      ],
      "payable": false,
      "stateMutability": "view",
      "type": "function",
      "signature": "0xa27664ee"
    }
  ],
  "bytecode": "0x608060405234801561001057600080fd5b5033600160006101000a81548173ffffffffffffffffffffffffffffffffffffffff021916908373ffffffffffffffffffffffffffffffffffffffff160217905550611d71806100616000396000f3fe6080604052600436106100ba576000357c0100000000000000000000000000000000000000000000000000000000900463ffffffff1680630d2d5dca146100bf5780631d50a6c41461012b57806326e852501461033f5780632b3009d3146103ba57806355d61952146105f95780636c5ed939146107df5780636fa830a61461081a5780639d01485f14610848578063a27664ee1461091d578063ab05bae61461098c578063baa39e0514610a74578063fdb10f5014610aaf575b600080fd5b3480156100cb57600080fd5b506100d4610af7565b6040518080602001828103825283818151815260200191508051906020019060200280838360005b838110156101175780820151818401526020810190506100fc565b505050509050019250505060405180910390f35b34801561013757600080fd5b506103296004803603608081101561014e57600080fd5b810190808035906020019064010000000081111561016b57600080fd5b82018360208201111561017d57600080fd5b8035906020019184600183028401116401000000008311171561019f57600080fd5b91908080601f016020809104026020016040519081016040528093929190818152602001838380828437600081840152601f19601f8201169050808301925050505050505091929192908035906020019064010000000081111561020257600080fd5b82018360208201111561021457600080fd5b8035906020019184600183028401116401000000008311171561023657600080fd5b91908080601f016020809104026020016040519081016040528093929190818152602001838380828437600081840152601f19601f8201169050808301925050505050505091929192908035906020019064010000000081111561029957600080fd5b8201836020820111156102ab57600080fd5b803590602001918460018302840111640100000000831117156102cd57600080fd5b91908080601f016020809104026020016040519081016040528093929190818152602001838380828437600081840152601f19601f82011690508083019250505050505050919291929080359060200190929190505050610b8f565b6040518082815260200191505060405180910390f35b34801561034b57600080fd5b506103786004803603602081101561036257600080fd5b8101908080359060200190929190505050610cd6565b604051808273ffffffffffffffffffffffffffffffffffffffff1673ffffffffffffffffffffffffffffffffffffffff16815260200191505060405180910390f35b6105df600480360360e08110156103d057600080fd5b81019080803590602001906401000000008111156103ed57600080fd5b8201836020820111156103ff57600080fd5b8035906020019184600183028401116401000000008311171561042157600080fd5b91908080601f016020809104026020016040519081016040528093929190818152602001838380828437600081840152601f19601f8201169050808301925050505050505091929192908035906020019064010000000081111561048457600080fd5b82018360208201111561049657600080fd5b803590602001918460018302840111640100000000831117156104b857600080fd5b91908080601f016020809104026020016040519081016040528093929190818152602001838380828437600081840152601f19601f8201169050808301925050505050505091929192908035906020019064010000000081111561051b57600080fd5b82018360208201111561052d57600080fd5b8035906020019184600183028401116401000000008311171561054f57600080fd5b91908080601f016020809104026020016040519081016040528093929190818152602001838380828437600081840152601f19601f82011690508083019250505050505050919291929080359060200190929190803573ffffffffffffffffffffffffffffffffffffffff1690602001909291908035906020019092919080359060200190929190505050610d15565b604051808215151515815260200191505060405180910390f35b34801561060557600080fd5b506106326004803603602081101561061c57600080fd5b8101908080359060200190929190505050610fb5565b60405180806020018060200180602001888152602001871515151581526020018673ffffffffffffffffffffffffffffffffffffffff1673ffffffffffffffffffffffffffffffffffffffff16815260200185600381111561069057fe5b60ff16815260200184810384528b818151815260200191508051906020019080838360005b838110156106d05780820151818401526020810190506106b5565b50505050905090810190601f1680156106fd5780820380516001836020036101000a031916815260200191505b5084810383528a818151815260200191508051906020019080838360005b8381101561073657808201518184015260208101905061071b565b50505050905090810190601f1680156107635780820380516001836020036101000a031916815260200191505b50848103825289818151815260200191508051906020019080838360005b8381101561079c578082015181840152602081019050610781565b50505050905090810190601f1680156107c95780820380516001836020036101000a031916815260200191505b509a505050505050505050505060405180910390f35b3480156107eb57600080fd5b506108186004803603602081101561080257600080fd5b810190808035906020019092919050505061127e565b005b6108466004803603602081101561083057600080fd5b8101908080359060200190929190505050611368565b005b34801561085457600080fd5b506108816004803603602081101561086b57600080fd5b8101908080359060200190929190505050611642565b604051808673ffffffffffffffffffffffffffffffffffffffff1673ffffffffffffffffffffffffffffffffffffffff168152602001858152602001841515151581526020018373ffffffffffffffffffffffffffffffffffffffff1673ffffffffffffffffffffffffffffffffffffffff16815260200182600381111561090557fe5b60ff1681526020019550505050505060405180910390f35b34801561092957600080fd5b506109766004803603604081101561094057600080fd5b8101908080359060200190929190803573ffffffffffffffffffffffffffffffffffffffff169060200190929190505050611728565b6040518082815260200191505060405180910390f35b34801561099857600080fd5b50610a72600480360360408110156109af57600080fd5b81019080803573ffffffffffffffffffffffffffffffffffffffff169060200190929190803590602001906401000000008111156109ec57600080fd5b8201836020820111156109fe57600080fd5b80359060200191846001830284011164010000000083111715610a2057600080fd5b91908080601f016020809104026020016040519081016040528093929190818152602001838380828437600081840152601f19601f8201169050808301925050505050505091929192905050506117ff565b005b348015610a8057600080fd5b50610aad60048036036020811015610a9757600080fd5b81019080803590602001909291905050506118ad565b005b348015610abb57600080fd5b50610af560048036036040811015610ad257600080fd5b8101908080359060200190929190803560ff16906020019092919050505061194d565b005b6060600360003373ffffffffffffffffffffffffffffffffffffffff1673ffffffffffffffffffffffffffffffffffffffff168152602001908152602001600020600001805480602002602001604051908101604052809291908181526020018280548015610b8557602002820191906000526020600020905b815481526020019060010190808311610b71575b5050505050905090565b60006509184e72a000858585856040516020018085805190602001908083835b602083101515610bd45780518252602082019150602081019050602083039250610baf565b6001836020036101000a03801982511681845116808217855250505050505090500184805190602001908083835b602083101515610c275780518252602082019150602081019050602083039250610c02565b6001836020036101000a03801982511681845116808217855250505050505090500183805190602001908083835b602083101515610c7a5780518252602082019150602081019050602083039250610c55565b6001836020036101000a0380198251168184511680821785525050505050509050018281526020019450505050506040516020818303038152906040528051906020012060019004811515610ccb57fe5b069050949350505050565b600080600083815260200190815260200160002060060160019054906101000a900473ffffffffffffffffffffffffffffffffffffffff169050919050565b60003373ffffffffffffffffffffffffffffffffffffffff166002876040518082805190602001908083835b602083101515610d665780518252602082019150602081019050602083039250610d41565b6001836020036101000a038019825116818451168082178552505050505050905001915050908152602001604051809103902060009054906101000a900473ffffffffffffffffffffffffffffffffffffffff1673ffffffffffffffffffffffffffffffffffffffff161480610e2957503373ffffffffffffffffffffffffffffffffffffffff16600160009054906101000a900473ffffffffffffffffffffffffffffffffffffffff1673ffffffffffffffffffffffffffffffffffffffff16145b1515610e3457600080fd5b876000808481526020019081526020016000206000019080519060200190610e5d929190611ca0565b50866000808481526020019081526020016000206001019080519060200190610e87929190611ca0565b50856000808481526020019081526020016000206002019080519060200190610eb1929190611ca0565b5084600080848152602001908152602001600020600301819055508360008084815260200190815260200160002060040160006101000a81548173ffffffffffffffffffffffffffffffffffffffff021916908373ffffffffffffffffffffffffffffffffffffffff1602179055508260008084815260200190815260200160002060050181905550600360008573ffffffffffffffffffffffffffffffffffffffff1673ffffffffffffffffffffffffffffffffffffffff16815260200190815260200160002060000182908060018154018082558091505090600182039060005260206000200160009091929091909150555060019050979650505050505050565b60608060606000806000806000808981526020019081526020016000206000016000808a81526020019081526020016000206001016000808b81526020019081526020016000206002016000808c8152602001908152602001600020600301546000808d815260200190815260200160002060060160009054906101000a900460ff166000808e815260200190815260200160002060060160019054906101000a900473ffffffffffffffffffffffffffffffffffffffff166000808f815260200190815260200160002060060160159054906101000a900460ff16868054600181600116156101000203166002900480601f0160208091040260200160405190810160405280929190818152602001828054600181600116156101000203166002900480156111265780601f106110fb57610100808354040283529160200191611126565b820191906000526020600020905b81548152906001019060200180831161110957829003601f168201915b50505050509650858054600181600116156101000203166002900480601f0160208091040260200160405190810160405280929190818152602001828054600181600116156101000203166002900480156111c25780601f10611197576101008083540402835291602001916111c2565b820191906000526020600020905b8154815290600101906020018083116111a557829003601f168201915b50505050509550848054600181600116156101000203166002900480601f01602080910402602001604051908101604052809291908181526020018280546001816001161561010002031660029004801561125e5780601f106112335761010080835404028352916020019161125e565b820191906000526020600020905b81548152906001019060200180831161124157829003601f168201915b505050505094509650965096509650965096509650919395979092949650565b60008082815260200190815260200160002060060160009054906101000a900460ff1615156112ac57600080fd5b3360008083815260200190815260200160002060060160016101000a81548173ffffffffffffffffffffffffffffffffffffffff021916908373ffffffffffffffffffffffffffffffffffffffff160217905550600080600083815260200190815260200160002060060160006101000a81548160ff021916908315150217905550600160008083815260200190815260200160002060060160156101000a81548160ff0219169083600381111561136057fe5b021790555050565b60038081111561137457fe5b60008083815260200190815260200160002060060160159054906101000a900460ff1660038111156113a257fe5b1415156113ae57600080fd5b600a600080838152602001908152602001600020600501548115156113cf57fe5b04600080838152602001908152602001600020600501540134101515156113f557600080fd5b60008082815260200190815260200160002060040160009054906101000a900473ffffffffffffffffffffffffffffffffffffffff1673ffffffffffffffffffffffffffffffffffffffff166108fc600080848152602001908152602001600020600501549081150290604051600060405180830381858888f19350505050158015611485573d6000803e3d6000fd5b506114c560008083815260200190815260200160002060040160009054906101000a900473ffffffffffffffffffffffffffffffffffffffff1682611aa2565b3360008083815260200190815260200160002060040160006101000a81548173ffffffffffffffffffffffffffffffffffffffff021916908373ffffffffffffffffffffffffffffffffffffffff160217905550600080600083815260200190815260200160002060060160006101000a81548160ff021916908315150217905550600080600083815260200190815260200160002060060160016101000a81548173ffffffffffffffffffffffffffffffffffffffff021916908373ffffffffffffffffffffffffffffffffffffffff160217905550600080600083815260200190815260200160002060060160156101000a81548160ff021916908360038111156115ce57fe5b0217905550600360003373ffffffffffffffffffffffffffffffffffffffff1673ffffffffffffffffffffffffffffffffffffffff16815260200190815260200160002060000181908060018154018082558091505090600182039060005260206000200160009091929091909150555050565b600080600080600080600087815260200190815260200160002060040160009054906101000a900473ffffffffffffffffffffffffffffffffffffffff166000808881526020019081526020016000206005015460008089815260200190815260200160002060060160009054906101000a900460ff166000808a815260200190815260200160002060060160019054906101000a900473ffffffffffffffffffffffffffffffffffffffff166000808b815260200190815260200160002060060160159054906101000a900460ff168494509450945094509450945091939590929450565b600080600090505b600360008473ffffffffffffffffffffffffffffffffffffffff1673ffffffffffffffffffffffffffffffffffffffff168152602001908152602001600020600001805490508110156117f45783600360008573ffffffffffffffffffffffffffffffffffffffff1673ffffffffffffffffffffffffffffffffffffffff168152602001908152602001600020600001828154811015156117cd57fe5b906000526020600020015414156117e757809150506117f9565b8080600101915050611730565b809150505b92915050565b816002826040518082805190602001908083835b6020831015156118385780518252602082019150602081019050602083039250611813565b6001836020036101000a038019825116818451168082178552505050505050905001915050908152602001604051809103902060006101000a81548173ffffffffffffffffffffffffffffffffffffffff021916908373ffffffffffffffffffffffffffffffffffffffff1602179055505050565b3373ffffffffffffffffffffffffffffffffffffffff1660008083815260200190815260200160002060040160009054906101000a900473ffffffffffffffffffffffffffffffffffffffff1673ffffffffffffffffffffffffffffffffffffffff1614151561191c57600080fd5b600160008083815260200190815260200160002060060160006101000a81548160ff02191690831515021790555050565b3373ffffffffffffffffffffffffffffffffffffffff1660008084815260200190815260200160002060040160009054906101000a900473ffffffffffffffffffffffffffffffffffffffff1673ffffffffffffffffffffffffffffffffffffffff161415156119bc57600080fd5b8060008084815260200190815260200160002060060160156101000a81548160ff021916908360038111156119ed57fe5b0217905550600260038111156119ff57fe5b816003811115611a0b57fe5b1415611a9e57600080600084815260200190815260200160002060060160016101000a81548173ffffffffffffffffffffffffffffffffffffffff021916908373ffffffffffffffffffffffffffffffffffffffff160217905550600080600084815260200190815260200160002060060160156101000a81548160ff02191690836003811115611a9857fe5b02179055505b5050565b6000611aae8284611728565b9050600360008473ffffffffffffffffffffffffffffffffffffffff1673ffffffffffffffffffffffffffffffffffffffff1681526020019081526020016000206000016001600360008673ffffffffffffffffffffffffffffffffffffffff1673ffffffffffffffffffffffffffffffffffffffff1681526020019081526020016000206000018054905003815481101515611b4757fe5b9060005260206000200154600360008573ffffffffffffffffffffffffffffffffffffffff1673ffffffffffffffffffffffffffffffffffffffff16815260200190815260200160002060000182815481101515611ba157fe5b9060005260206000200181905550600360008473ffffffffffffffffffffffffffffffffffffffff1673ffffffffffffffffffffffffffffffffffffffff1681526020019081526020016000206000016001600360008673ffffffffffffffffffffffffffffffffffffffff1673ffffffffffffffffffffffffffffffffffffffff1681526020019081526020016000206000018054905003815481101515611c4657fe5b9060005260206000200160009055600360008473ffffffffffffffffffffffffffffffffffffffff1673ffffffffffffffffffffffffffffffffffffffff1681526020019081526020016000206000018054905050505050565b828054600181600116156101000203166002900490600052602060002090601f016020900481019282601f10611ce157805160ff1916838001178555611d0f565b82800160010185558215611d0f579182015b82811115611d0e578251825591602001919060010190611cf3565b5b509050611d1c9190611d20565b5090565b611d4291905b80821115611d3e576000816000905550600101611d26565b5090565b9056fea165627a7a723058209b3a61cb4645c59b2858e1a5a1c98cebd1a81371c7ebb3dfb1f6ae831516d1310029",
  "source": "pragma solidity ^0.5.0;\n\n//Land Details\ncontract landRegistration {\n    struct landDetails {\n        string state;\n        string district;\n        string village;\n        uint256 surveyNumber;\n        address payable CurrentOwner;\n        uint256 marketValue;\n        bool isAvailable;\n        address requester;\n        reqStatus requestStatus;\n    }\n\n    //request status\n    enum reqStatus {Default, pending, reject, approved}\n\n    //profile of a client\n    struct profiles {\n        uint256[] assetList;\n    }\n\n    mapping(uint256 => landDetails) land;\n    address owner;\n    mapping(string => address) superAdmin;\n    mapping(address => profiles) profile;\n\n    //contract owner\n    constructor() public {\n        owner = msg.sender;\n    }\n    modifier onlyOwner {\n        require(msg.sender == owner);\n        _;\n    }\n\n    //adding village admins\n    function addSuperAdmin(address _superAdmin, string memory _village)\n        public\n    \n    {\n        superAdmin[_village] = _superAdmin;\n    }\n    //Registration of land details.\n    function Registration (\n        string memory _state,\n        string memory _district,\n        string memory _village,\n        uint256 _surveyNumber,\n        address payable _OwnerAddress,\n        uint256 _marketValue,\n        uint256 id\n    ) public payable returns (bool) {\n        require(superAdmin[_village]==msg.sender || owner==msg.sender);\n        land[id].state = _state;\n        land[id].district = _district;\n        land[id].village = _village;\n        land[id].surveyNumber = _surveyNumber;\n        land[id].CurrentOwner = _OwnerAddress;\n        land[id].marketValue = _marketValue;\n        profile[_OwnerAddress].assetList.push(id);\n        return true;\n    }\n    //to view details of land for the owner\n    function landInfoOwner(uint256 id)\n        public\n        view\n        returns (\n            string memory,\n            string memory,\n            string memory,\n            uint256,\n            bool,\n            address,\n            reqStatus\n        )\n    {\n        return (\n            land[id].state,\n            land[id].district,\n            land[id].village,\n            land[id].surveyNumber,\n            land[id].isAvailable,\n            land[id].requester,\n            land[id].requestStatus\n        );\n    }\n    //to view details of land for the buyer\n    function landInfoUser(uint256 id)\n        public\n        view\n        returns (address, uint256, bool, address, reqStatus)\n    {\n        return (\n            land[id].CurrentOwner,\n            land[id].marketValue,\n            land[id].isAvailable,\n            land[id].requester,\n            land[id].requestStatus\n        );\n    }\n\n    // to compute id for a land.\n    function computeId(\n        string memory _state,\n        string memory _district,\n        string memory _village,\n        uint256 _surveyNumber\n    ) public view returns (uint256) {\n        return\n            uint256(\n                keccak256(\n                    abi.encodePacked(_state, _district, _village, _surveyNumber)\n                )\n            ) %\n            10000000000000;\n    }\n\n    //push a request to the land owner\n    function requstToLandOwner(uint256 id) public {\n        require(land[id].isAvailable);\n        land[id].requester = msg.sender;\n        land[id].isAvailable = false;\n        land[id].requestStatus = reqStatus.pending; //changes the status to pending.\n    }\n    //will show assets of the function caller\n    function viewAssets() public view returns (uint256[] memory) {\n    \n        return (profile[msg.sender].assetList);\n    }\n    //viewing request for the lands\n    function viewRequest(uint256 property) public view returns (address) {\n        return (land[property].requester);\n    }\n    //processing request for the land by accepting or rejecting\n    function processRequest(uint256 property, reqStatus status) public {\n        require(land[property].CurrentOwner == msg.sender);\n        land[property].requestStatus = status;\n        if (status == reqStatus.reject) {\n            land[property].requester = address(0);\n            land[property].requestStatus = reqStatus.Default;\n        }\n    }\n    //availing land for sale.\n    function makeAvailable(uint256 property) public {\n        require(land[property].CurrentOwner == msg.sender);\n        land[property].isAvailable = true;\n    }\n    //buying the approved property\n    function buyProperty(uint256 property) public payable {\n        require(land[property].requestStatus == reqStatus.approved);\n        require(\n            msg.value >=\n                (land[property].marketValue +\n                    ((land[property].marketValue) / 10))\n        );\n        land[property].CurrentOwner.transfer(land[property].marketValue);\n        removeOwnership(land[property].CurrentOwner, property);\n        land[property].CurrentOwner = msg.sender;\n        land[property].isAvailable = false;\n        land[property].requester = address(0);\n        land[property].requestStatus = reqStatus.Default;\n        profile[msg.sender].assetList.push(property); //adds the property to the asset list of the new owner.\n\n    }\n    //removing the ownership of seller for the land. and it is called by the buyProperty function\n    function removeOwnership(address previousOwner, uint256 id) private {\n        uint256 index = findId(id, previousOwner);\n        profile[previousOwner].assetList[index] = profile[previousOwner]\n            .assetList[profile[previousOwner].assetList.length - 1];\n        delete profile[previousOwner].assetList[profile[previousOwner]\n            .assetList\n            .length -\n            1];\n        profile[previousOwner].assetList.length;\n    }\n    //for finding the index of a perticular id\n    function findId(uint256 id, address user) public view returns (uint256) {\n        uint256 i;\n        for (i = 0; i < profile[user].assetList.length; i++) {\n            if (profile[user].assetList[i] == id) return i;\n        }\n        return i;\n    }\n}\n",
  "sourcePath": "/home/saksham/Desktop/demo/cryptolands/contracts/LandRegistration.sol",
  "compiler": {
    "name": "solc",
    "version": "0.5.0+commit.1d4f565a.Emscripten.clang"
  },
  "schemaVersion": "3.0.1",
  "updatedAt": "2020-04-01T17:47:58.647Z",
  "devdoc": {
    "methods": {}
  },
  "userdoc": {
    "methods": {}
  }
}